S0110000736E616B5F67616D652E737265636D
S11300000C942A000C9447000C9447000C9447006D
S11300100C9447000C9447000C9447000C94470040
S11300200C9447000C9447000C9447000C94470030
S11300300C9447000C9447000C9447000C94470020
S11300400C9447000C9447000C9447000C94470010
S11300500C94470011241FBECFE5D8E0DEBFCDBF0E
S113006010E0A0E6B0E0EAE6F9E002C005900D92E7
S1130070A838B107D9F710E0A8E8B0E001C01D9294
S1130080A838B107E1F70E9403040C94B3040C945C
S1130090000040E00E94500008950E945601089517
S11300A0823451F1833420F4813409F07BC007C0D9
S11300B0833409F43EC0843409F074C057C041301D
S11300C069F42AB381E090E0AC0102C0440F551FEB
S11300D06A95E2F7BA01622B6ABB08952AB381E0FC
S11300E090E0AC0102C0440F551F6A95E2F7BA01D3
S11300F0609562236ABB0895413069F427B381E0B7
S113010090E0AC0102C0440F551F6A95E2F7BA01B2
S1130110622B67BB089527B381E090E0AC0102C075
S1130120440F551F6A95E2F7BA016095622367BBD5
S11301300895413069F424B381E090E0AC0102C039
S1130140440F551F6A95E2F7BA01622B64BB089508
S113015024B381E090E0AC0102C0440F551F6A95BE
S1130160E2F7BA016095622364BB0895413069F4F3
S113017021B381E090E0AC0102C0440F551F6A95A1
S1130180E2F7BA01622B61BB089521B381E090E0EC
S1130190AC0102C0440F551F6A95E2F7BA0160959D
S11301A0622361BB0895823451F1833420F4813495
S11301B009F07BC007C0833409F43EC0843409F0DD
S11301C074C057C0413069F42BB381E090E0AC01B6
S11301D002C0440F551F6A95E2F7BA01622B6BBB4C
S11301E008952BB381E090E0AC0102C0440F551F89
S11301F06A95E2F7BA01609562236BBB08954130BA
S113020069F428B381E090E0AC0102C0440F551FAB
S11302106A95E2F7BA01622B68BB089528B381E0BE
S113022090E0AC0102C0440F551F6A95E2F7BA0191
S11302306095622368BB0895413069F425B381E079
S113024090E0AC0102C0440F551F6A95E2F7BA0171
S1130250622B65BB089525B381E090E0AC0102C038
S1130260440F551F6A95E2F7BA016095622365BB96
S11302700895413069F422B381E090E0AC0102C0FA
S1130280440F551F6A95E2F7BA01622B62BB0895C9
S113029022B381E090E0AC0102C0440F551F6A957F
S11302A0E2F7BA016095622362BB08958234F1F0EB
S11302B0833420F4813409F04FC006C0833441F103
S11302C0843409F049C036C029B381E090E0062E99
S11302D002C0880F991F0A94E2F730E08223932327
S11302E002C0959587956A95E2F7089526B381E053
S11302F090E0062E02C0880F991F0A94E2F730E0BE
S11303008223932302C0959587956A95E2F7089511
S113031023B381E090E0062E02C0880F991F0A944F
S1130320E2F730E08223932302C0959587956A957E
S1130330E2F7089520B381E090E0062E02C0880F12
S1130340991F0A94E2F730E08223932302C0959523
S113035087956A95E2F7089580E008958234B9F0AC
S1130360833418F48134C9F505C08334E9F0843446
S1130370A1F527C02BB381E090E0AC0102C0440F8B
S1130380551F6A95E2F7BA0162276BBB089528B33B
S113039081E090E0AC0102C0440F551F6A95E2F77A
S11303A0BA01622768BB089525B381E090E0AC01EF
S11303B002C0440F551F6A95E2F7BA01622765BB74
S11303C0089522B381E090E0AC0102C0440F551FB0
S11303D06A95E2F7BA01622762BB0895823461F03C
S11303E0833418F4813469F405C0833439F08434D7
S11303F041F406C06ABB089567BB089564BB0895C1
S113040061BB0895823461F0833418F4813469F453
S113041005C0833439F0843441F406C06BBB0895BD
S113042068BB089565BB089562BB0895823461F08A
S1130430833418F4813471F405C0833439F084347E
S113044049F406C089B3089586B3089583B3089523
S113045080B3089580E00895823451F1833420F408
S1130460813409F07BC007C0833409F43EC084346E
S113047009F074C057C0413069F42BB381E090E0B7
S1130480AC0102C0440F551F6A95E2F7BA01622B12
S11304906BBB08952BB381E090E0AC0102C0440F24
S11304A0551F6A95E2F7BA01609562236BBB089504
S11304B0413069F428B381E090E0AC0102C0440FFC
S11304C0551F6A95E2F7BA01622B68BB089528B3F9
S11304D081E090E0AC0102C0440F551F6A95E2F739
S11304E0BA016095622368BB0895413069F425B36D
S11304F081E090E0AC0102C0440F551F6A95E2F719
S1130500BA01622B65BB089525B381E090E0AC018C
S113051002C0440F551F6A95E2F7BA016095622341
S113052065BB0895413069F422B381E090E0AC01E9
S113053002C0440F551F6A95E2F7BA01622B62BBF1
S1130540089522B381E090E0AC0102C0440F551F2E
S11305506A95E2F7BA016095622362BB08956F70F1
S1130560823481F0833418F48134F1F405C0833487
S113057079F08434C9F412C08BB3807F8BBB8BB306
S1130580862B8BBB88B3807F88BB88B3862B88BBC4
S113059085B3807F85BB85B3862B85BB82B3807F83
S11305A082BB82B3682B62BB08956295607F8234FC
S11305B081F0833418F48134F1F405C0833479F084
S11305C08434C9F412C08BB38F708BBB8BB3862B6E
S11305D08BBB88B38F7088BB88B3862B88BB85B3ED
S11305E08F7085BB85B3862B85BB82B38F7082BB2E
S11305F082B3682B62BB089582E460E041E00E940C
S1130600D3008FE99FE00197F1F700C0000082E476
S113061060E040E00E94D3008FE99FE00197F1F78A
S113062000C000000895682F81E40E94020282E461
S113063061E040E00E94D3000E94FC028FEC97E04E
S11306400197F1F700C0000008958FEF91EEA4E048
S113065081509040A040E1F700C0000081E460E0D8
S113066041E00E94500081E461E041E00E945000BA
S113067081E462E041E00E94500081E463E041E0F3
S11306800E94500081E464E041E00E94500081E453
S113069065E041E00E94500081E466E041E00E9490
S11306A0500081E467E041E00E94500082E460E091
S11306B041E00E94500082E462E041E00E94500068
S11306C082E461E041E00E94500082E462E040E0A4
S11306D00E94D30088E30E941303AFECB7E01197A4
S11306E0F1F700C000008CE00E9413038FEC97E048
S11306F00197F1F700C0000081E00E941303AFE10D
S1130700BEE41197F1F700C0000086E00E941303D5
S11307108FEC97E00197F1F700C000000895682F6F
S113072081E40E94020282E461E041E00E94D3007D
S11307300E94FC028FEC97E00197F1F700C00000E3
S11307400895CF93DF93EC018881882331F02196BB
S11307500E948F0389918823D9F7DF91CF9108955F
S11307600F931F93CF93DF93C82FD92F8E010F5F61
S11307701F4F6150060F111D05C00E948F03C01743
S1130780D10719F089918823C1F7DF91CF911F9187
S11307900F91089581E00E9413038FE19EE4019775
S11307A0F1F700C000000895282F2150223070F482
S11307B0613170F4662371F0813019F4962F9158E9
S11307C00AC0823041F4962F915405C090E803C0CA
S11307D090E801C090E8892F0E9413038FEC97E002
S11307E00197F1F700C00000089582E461E040E061
S11307F00E94D30082E462E041E00E94D30081E4DD
S11308000E9416020895CF93DF93CDB7DEB72997E0
S11308100FB6F894DEBF0FBECDBF0E94250380E45F
S11308200E94130380E00E948F0382E00E948F03E2
S113083084E00E948F038EE00E948F038EE00E946A
S11308408F038EE00E948F0380E00E948F0380E07C
S11308500E948F0384E460E00E94490084E461E024
S11308600E94490084E462E00E94490084E463E059
S11308700E94490081E0898382E08A83DE01139625
S1130880E0E8F0E087E001900D928150E1F780E626
S113089090E0C82EEB80BB24DD246894D1F801E0FD
S11308A011E0FF24F3949924689491F888248394A4
S11308B0F01611F41E1539F0802F6E2D0E94D4030A
S11308C080E00E948F038F2D612F0E94D4038C2D12
S11308D090E06D2D0E94B0038FE799EAA3E0815068
S11308E09040A040E1F700C000000E94CA0384E4E5
S11308F063E00E944D00813009F4F92C84E460E047
S11309000E944D00813009F4F82CF01639F51E15BB
S113091021F597E0B91609F4BB24A2E0AA1609F45C
S1130920AA24D3940E94CA03EA2DFF27E7FDF09579
S113093081E090E08C0F9D1FE80FF91F0081EB2DE3
S1130940FF27E7FDF095A3E0B0E0AC0FBD1FEA0F71
S1130950FB1FE080B394A39401C00F2D10310CF061
S10D096010E01F5FA5CFF894FFCF4D
S113096A6F6F6F6F6F6F6F6F6F6F6F6F6F6F6F6F89
S113097A6F6F6F6F6F6F6F6F6F6F6F6F6F6F6F00E8
S10B098A080206080C030E002C
S9030000FC
